:020000040800F2
:10000000F0050020590400085D0200085F020008A6
:1000100063020008670200086B020008000000008D
:100020000000000000000000000000006F02000857
:100030007102000800000000730200087502000849
:1000400073040008730400087304000873040008B4
:1000500073040008730400087304000873040008A4
:100060007304000873040008730400087304000894
:100070007304000873040008730400087304000884
:100080007304000873040008730400087304000874
:100090007304000873040008730400087304000864
:1000A0007304000873040008730400087304000854
:1000B0007304000873040008730400087304000844
:1000C0007304000873040008730400087304000834
:1000D00073040008E5230008730400087304000893
:1000E0007304000873040008730400087304000814
:1000F0007304000873040008730400087304000804
:1001000073040008730400087304000873040008F3
:1001100073040008730400087304000873040008E3
:1001200073040008730400087304000873040008D3
:10013000DFF80CD002F06CFD00480047F701000822
:10014000F005002010B54FF4FA603F49086040F612
:10015000FF7088803220887102F08AF93A488379EA
:1001600082880168002002F0E2F910BD10B54FF45A
:10017000FA60364908604FF40060888002F078F930
:100180003248828800230168012002F0D0F910BDB6
:1001900010B54FF4FA602E4908602820888002F0DC
:1001A00067F92B48828800230168032002F0BFF919
:1001B00010BD10B54FF4FA602649088050204880E1
:1001C00002F056F92348428801880023022002F0F9
:1001D000AEF910BD10B5C8201F49088040F6FF7069
:1001E000488002F045F91C48428801880023042019
:1001F00002F09DF910BD10B5022402F02FF84FF463
:10020000A06000F03BF94FF4165002F09FF8062C66
:1002100013D2DFE804F0120306090C0FFFF792FF78
:100220000EE0FFF7A3FF0BE0FFF7B2FF08E0FFF7D8
:10023000C0FF05E0FFF7CEFF02E0FFF797FF00BF2A
:1002400000BF002010BD00003C0000203400002052
:1002500044000020500000204C000020704700BFE8
:10026000FEE700BFFEE700BFFEE700BFFEE7704706
:1002700070477047704700000CB500200190009057
:100280006C48006840F480306A49086000BF6948E3
:10029000006800F4003000900198401C0190009824
:1002A00018B90198B0F5A06FF1D16248006800F468
:1002B000003010B10120009001E000200090009873
:1002C000012843D15C48006840F010005A4908609A
:1002D0000846006820F0030008600846006840F007
:1002E0000200086053484068524948600846406828
:1002F00048600846406840F48060486008464068AE
:1003000020F47C1048600846406840F4E8104860DB
:100310000846006840F08070086000BF45480068EB
:1003200000F000700028F9D04248406820F0030037
:10033000404948600846406840F00200486000BFFD
:100340003C48406800F00C000828F9D10CBD10B5FD
:10035000FFF792FF10BD10B53648006840F001006D
:1003600034490860084640683449084031494860CB
:1003700008460068324908402E490860084600686F
:1003800020F4802008600846406820F4FE004860A1
:100390004FF41F008860FFF7DAFF4FF00060294933
:1003A000086010BD10B5002100200022214B5B68C1
:1003B00003F00C0121B1042906D0082928D107E057
:1003C000214B224C236027E01F4B204C236023E06D
:1003D000184B5B6803F47010164B5B6803F48032B3
:1003E000022303EB904022B9194B4343174C23607F
:1003F0000DE0104B5B6803F4003323B1144B43430F
:10040000124C236003E0104B4343104C236003E085
:100410000D4B0E4C236000BF00BF064B5B68C3F35F
:1004200003130C4CE15C094B1B68CB40074C236069
:1004300010BD000000100240002002400000FFF844
:10044000FFFFF6FE08ED00E000127A000000002039
:1004500000093D0004000020064880470648004788
:10046000FEE7FEE7FEE7FEE7FEE7FEE7FEE7FEE764
:10047000FEE7FEE757030008310100083149014358
:10048000314A1160704770B5002100230F22C478F3
:1004900004B32D4C246804F4E064C4F5E064210A3C
:1004A000C1F10403CA40447804FA03F1847814408B
:1004B00021430901254C0678A155047804F01F0555
:1004C0000124AC4005786D11AD0005F1E025C5F8BB
:1004D000004109E0047804F01F050124AC401C4DE4
:1004E0000678761145F8264070BD1A4A0A40024344
:1004F000154B1B1F1A60704739B1134A121D126841
:100500000243114B1B1D1A6006E00F4A121D1268B0
:1005100082430D4B1B1D1A607047042808D14FF011
:10052000E021096941F004014FF0E022116107E088
:100530004FF0E021096921F004014FF0E022116140
:10054000704700000000FA050CED00E000E400E058
:1005500080E100E080FFFF1F10B50121480700F097
:100560002EFD00214FF0005000F029FD10BD30B5E8
:10057000002200235A4C226840F6FE748440A243B5
:10058000D1E900452C438D682C43CD6844EA05032E
:1005900003FA00F42243524C226030BD0021016076
:1005A00041608160C160704739B14D4A12680123D2
:1005B00083401A434A4B1A6006E0494A12680123F5
:1005C00083409A43464B1A60704741B1444A1268CF
:1005D0004FF4805383401A43414B1A6007E0404A6E
:1005E00012684FF4805383409A433D4B1A60704722
:1005F00010B551B13A4A121D126804090123A340F3
:100600001A43374B1B1D1A6009E0354A121D126848
:1006100004090123A3409A43314B1B1D1A6010BDEE
:1006200040B12F49091D096841F003012C4A121DF0
:10063000116007E02A49091D096821F00301284AD1
:10064000121D1160704710B53AB1254B1B6801FAB5
:1006500000F42343224C236006E0214B1B6801FA7F
:1006600000F4A3431E4C236010BD08B50022009285
:100670001B4A009200F10802009B1A440092009A63
:10068000116008BD08B500220092154A009200F1E1
:100690001402009B1A440092009A116008BD30B504
:1006A00000240023082802D142EA012401E042EAA2
:1006B00001440B4B00F120052B441C6030BD08B5F4
:1006C000014600200090064800902C2000EB91008D
:1006D000009A104400900098006880B208BD0000A5
:1006E0000074004001684FF6FE7211400160002165
:1006F000016041608160C1608D49884208D18C49A8
:100700000839496841F00F01894A083A51608AE086
:1007100087491431884208D185490839496841F030
:10072000F001834A083A51607DE0814928318842CE
:1007300008D17F490839496841F470617C4A083A18
:10074000516070E07A493C31884208D178490839D3
:10075000496841F47041764A083A516063E074494F
:100760005031884208D172490839496841F47021F2
:100770006F4A083A516056E06D496431884208D1A9
:100780006B490839496841F47001694A083A516077
:1007900049E067497831884208D165490839496894
:1007A00041F07061624A083A51603CE06149884218
:1007B00006D1011F096841F00F01021F116032E0EC
:1007C0005C491431884208D15A49091F096841F02F
:1007D000F001584A121F116025E05649283188421D
:1007E00008D15449091F096841F47061514A121F28
:1007F000116018E04F493C31884208D14D49091F2A
:10080000096841F470414B4A121F11600BE04949DD
:100810005031884207D14749091F096841F47021C6
:10082000444A121F1160704710B50022026847F653
:10083000F0739A430C6A8B6823430C6923434C6919
:1008400023438C692343CC6923434C6A23438C6A3A
:1008500023431A430260CB6843600B6883604B6894
:10086000C36010BD0021016041608160C160016111
:1008700041618161C161016241628162704721B160
:10088000026842F00102026004E002684FF6FE7363
:100890001A40026070471AB103680B43036002E01C
:1008A00003688B43036070474160704701464868A6
:1008B00080B2704701460020002201F080531BB136
:1008C0001C4B083B1A6802E0194B083B1A6802EA05
:1008D00001030BB1012000E00020704700F08051BF
:1008E00019B11449091F086002E01149083948602C
:1008F000704701460020002201F080531BB10D4BD0
:10090000083B1A6802E00A4B083B1A6802EA010336
:100910000BB1012000E00020704700F0805119B1B8
:100920000449091F086002E001490839486070471E
:10093000080002400804024010B50446CC48844236
:1009400008D10121042000F02DFB0021042000F03B
:1009500029FB46E0C748844208D10121082000F065
:1009600021FB0021082000F01DFB3AE0C248844230
:1009700008D10121102000F015FB0021102000F00B
:1009800011FB2EE0BD48844208D10121202000F057
:1009900009FB0021202000F005FB22E0B84884423A
:1009A00008D10121402000F0FDFA0021402000F094
:1009B000F9FA16E0B348844208D10121802000F002
:1009C000F1FA0021802000F0EDFA0AE0AE488442FE
:1009D00007D10121801500F0E5FA0021A01500F0F3
:1009E000E1FA10BD10B50121084600F0DBFA002144
:1009F000012000F0D7FA10BD2DE9F0410246002594
:100A00000026002000230024002791F803C00CF0EA
:100A10000F0591F803C00CF0100CBCF1000F03D0CF
:100A200091F802C04CEA050591F800C0BCF1000F36
:100A300031D0146800202BE04FF0010C0CFA00F3C9
:100A4000B1F800C00CEA03069E4220D183004FF0AB
:100A50000F0C0CFA03F7BC4305FA03FC4CEA040440
:100A600091F803C0BCF1280F06D14FF0010C0CFA2D
:100A700000FCC2F814C00AE091F803C0BCF1480FB2
:100A800005D14FF0010C0CFA00FCC2F810C0401C5C
:100A90000828D1D31460B1F800C0BCF1FF0F34DDD9
:100AA000546800202EE000F1080C4FF0010808FA0D
:100AB0000CF3B1F800C00CEA03069E4221D183007A
:100AC0004FF00F0C0CFA03F7BC4305FA03FC4CEA99
:100AD000040491F803C0BCF1280F05D100F1080C03
:100AE00008FA0CF8C2F8148091F803C0BCF1480F62
:100AF00007D100F1080C4FF0010808FA0CF8C2F811
:100B00001080401C0828CED35460BDE8F0814FF619
:100B1000FF710180022181700421C170704702467B
:100B2000002093680B400BB1012000E000207047CB
:100B30000146886880B2704702460020D3680B40A7
:100B40000BB1012000E0002070470146C86880B268
:100B5000704701617047416170470AB1016100E06F
:100B600041617047C16070474FF480320A4382612F
:100B70008161826182698269704702460020434B2D
:100B800018684FF68073184040EA021008433F4B44
:100B9000186070473E49C8617047F0B50A460023A7
:100BA00000240021002500F00046B6F1004F02D1DC
:100BB000364EF16901E0354E7168C0F3034583B2EA
:100BC00000F44016B6F5401F08D121F070612F4E99
:100BD000766826F070662D4F7E6012E000F4801675
:100BE000B6F5801F06D1032606FA05F4A14341F0AD
:100BF000706106E0460D360103FA06F6B14341F096
:100C0000706122B1460D360103FA06F6314300F059
:100C10000046B6F1004F02D11C4EF16101E01B4EBF
:100C20007160F0BD30B500228B071C0F0F2303FA53
:100C300004F2164B08338C1053F824309343134CB2
:100C400008348D1044F8253023468C1053F8243096
:100C50008C07240F00FA04F423430C4C08348D1045
:100C600044F8253030BD0A49DC3108607047000087
:100C700000080140000C0140001001400014014038
:100C800000180140001C014000200140000001400C
:100C900000002042DF48006840F00100DD490860A4
:100CA00008464068DC490840DA4948600846006860
:100CB000DA490840D74908600846006820F48020D7
:100CC00008600846406820F4FE0048604FF41F00AA
:100CD00088607047CF49096821F48031CD4A11609E
:100CE0001146096821F480211160B0F5803F03D0DE
:100CF000B0F5802F0ED106E0C649096841F4803175
:100D0000C44A116007E0C349096841F4A021C14AFF
:100D1000116000E000BF00BF704710B5014600221F
:100D2000002300204A11012A02D1BA4C236806E0B0
:100D3000022A02D1B74C236A01E0B64C636A01F083
:100D40001F02012494401C400CB1012000E000204F
:100D500010BD38B5002000900024002500BF3120D0
:100D6000FFF7DBFF05460098401C00900098B0F5A7
:100D7000A06F01D0002DF2D03120FFF7CEFF08B1D7
:100D8000012400E00024204638BD01460020A14A8D
:100D9000106820F0F80040EAC10010607047A049D8
:100DA00008607047024600209A4B586820F47C1077
:100DB00042EA01031843974B586070479849086608
:100DC000704701460020934A506820F00300084312
:100DD000506070478F48406800F00C007047014633
:100DE00000208C4A506820F0F000084350607047A3
:100DF00001460020874A506820F4E06008435060B4
:100E0000704701460020834A506820F4605040EA51
:100E1000C1005060704729B17E4A527A02437D4B2F
:100E20005A7204E07B4A527A82437A4B5A72704774
:100E30007B49D8310860704701460020754A5068E8
:100E400020F440400843506070470021714A20322E
:100E50001170704A82F82010012802D004280AD1AB
:100E600004E001216B4A2032117005E00521694A36
:100E70002032117000E000BF00BF70476949086070
:100E800070476449096A0143624A116270476549C3
:100E900044390860704730B5002100220024002347
:100EA0005C4D6D6805F00C0121B1042905D00829BD
:100EB00023D105E05C4D056022E05B4D05601FE03D
:100EC000544D6D6805F47012524D6D6805F4803410
:100ED000022505EB92421CB9544D554305600BE0C9
:100EE0004C4D6D6805F400351DB1504D55430560FE
:100EF00002E04D4D5543056002E04B4D056000BFDB
:100F000000BF444D6D6805F0F0010909484D6B5C68
:100F10000568DD4045603F4D6D6805F4E061090AF4
:100F2000434D6B5C4568DD4085603A4D6D6805F466
:100F30006051C90A3E4D6B5C4568DD40C560354D6A
:100F40006D6805F44041890B3A4D6B5CC568B5FB93
:100F5000F3F5056130BD29B12E4A526902432D4B8C
:100F60005A6104E02B4A526982432A4B5A61704706
:100F700029B1284A92690243264B9A6104E0254A26
:100F800092698243234B9A61704729B1214AD26901
:100F90000243204BDA6104E01E4AD26982431D4BB2
:100FA000DA61704729B11B4AD2680243194BDA60F3
:100FB00004E0184AD2688243164BDA60704729B1C0
:100FC000144A12690243134B1A6104E0114A126970
:100FD0008243104B1A6170471249403908607047CC
:100FE0000F49C86470470B49C87170470948406A87
:100FF00040F0807007494862704701460020054A6A
:1010000092680A400AB1012000E0002070470149BF
:1010100088727047001002400000FFF8FFFFF6FEE4
:10102000000042428004424200127A0000093D0062
:10103000140000202400002010B50446FE4884421D
:1010400008D10121C014FFF7ADFF0021E014FFF724
:10105000A9FFC4E0B4F1804F08D101210846FFF791
:10106000AEFF00210120FFF7AAFFB8E0F348844259
:1010700008D101210220FFF7A2FF00210220FFF783
:101080009EFFACE0EE48844208D101210420FFF726
:1010900096FF00210420FFF792FFA0E0E948844278
:1010A00008D101210820FFF78AFF00210820FFF75F
:1010B00086FF94E0E448844208D101211020FFF724
:1010C0007EFF00211020FFF77AFF88E0DF4884428E
:1010D00008D101212020FFF772FF00212020FFF717
:1010E0006EFF7CE0DA48844208D101214014FFF70A
:1010F00059FF00216014FFF755FF70E0D548844286
:1011000009D10121C804FFF74DFF00214FF4002051
:10111000FFF748FF63E0D048844209D10121080568
:10112000FFF740FF00214FF48010FFF73BFF56E030
:10113000CA48844209D101214805FFF733FF002145
:101140004FF40010FFF72EFF49E0C548844208D154
:1011500001214020FFF733FF00214020FFF72FFF40
:101160003DE0C048844208D101218020FFF727FFDD
:1011700000218020FFF723FF31E0BB48844208D1E3
:1011800001218015FFF71BFF0021A015FFF717FFB6
:1011900025E0B648844209D101210804FFF702FF87
:1011A00000214FF48030FFF7FDFE18E0B048844284
:1011B00009D101214804FFF7F5FE00214FF400306A
:1011C000FFF7F0FE0BE0AB48844208D10121880410
:1011D000FFF7E8FE00214FF48020FFF7E3FE10BD8B
:1011E00000220288944B98420ED0994B98420BD023
:1011F000B0F1804F08D0914B984205D0904B984267
:1012000002D0904B984204D14FF68F731A404B880E
:101210001A438D4B984207D08C4B984204D04FF61E
:10122000FF431A40CB881A4302808B8883850B8842
:101230000385814B98420BD0854B984208D08B4B4D
:10124000984205D08A4B984202D08A4B984201D1ED
:101250000B7A038601238382704770B50024002235
:101260000023058C4FF6FE7635400584028C83887A
:10127000048B4FF68F752C40B51E2C400D882C43E7
:10128000751E2A400D892A434D882A436A4DA8427B
:101290000BD06F4DA84208D0744DA84205D0744DB4
:1012A000A84202D0734DA84213D14FF6F7752A40D9
:1012B0004D892A434FF6FB752A408D882A434FF605
:1012C000FF652B404FF6FF552B408D892B43CD8971
:1012D0002B4383800483CD888586028470BD70B5DE
:1012E000002400220023058C4FF6EF76354005845C
:1012F000028C8388048B48F6FF752C404FF6FF451F
:101300002C400D884FF6FF7606EA05252C434FF654
:10131000DF752A400D8906EA05152A434D8806EA3D
:1013200005152A43444DA84202D0494DA8421DD17B
:101330004FF67F752A404D894FF6FF7606EA051570
:101340002A434FF6BF752A408D8806EA05152A43C1
:101350004FF6FF352B404FF2FF752B408D8906EA83
:1013600085052B43CD8906EA85052B4383800483BD
:10137000CD880587028470BD70B50024002200234B
:10138000058C4FF6FF6635400584028C8388848B7C
:101390004FF68F752C404FF6FC752C400D882C4372
:1013A0004FF6FF552A400D894FF6FF7606EA0525D0
:1013B0002A434D8806EA05252A431F4DA84202D03C
:1013C000234DA8421DD14FF2FF752A404D894FF69B
:1013D000FF7606EA05252A434FF6FF352A408D8819
:1013E00006EA05252A434EF6FF752B404DF6FF759C
:1013F0002B408D8906EA05152B43CD8906EA051594
:101400002B4383808483CD888587028470BD70B52B
:10141000002200230024058C4EF6FF76354005841B
:10142000038C8488828B48F6FF752A404FF6FF456F
:101430002A400D8820E00000002C014000040040FC
:1014400000080040000C0040001000400014004064
:1014500000340140004C0140005001400054014064
:1014600000180040001C00400020004000400140E7
:1014700000440140004801404FF6FF7606EA05258A
:101480002A434DF6FF752B400D8906EA05352B439F
:101490004D8806EA05352B43FA4DA84202D0FA4D95
:1014A000A84208D14BF6FF752C408D894FF6FF7688
:1014B00006EA85152C4384808283CD88A0F84050AD
:1014C000038470BD828B4FF2FF331A408283828B7C
:1014D0004FF6FF7303EA01231A4382837047F0B586
:1014E0000C461546002200210026078C4EF6FF7C94
:1014F00007EA0C070784828B018C4FF6FF7707EA17
:10150000043640F6FF473A404FF6FF7707EA0527D3
:101510003A434FF6FF7707EA03373A43D94FB842C9
:101520000ED0D94FB8420BD0B0F1804F08D0D74F72
:10153000B84205D0D64FB84202D0D64FB84206D1F5
:101540004DF6FF77394046F48057394305E047F6BA
:10155000FF57394044F48057394382830184F0BDFA
:10156000828B4FF6F3731A408283828B0A43828305
:101570007047F0B50C461546002200210026078C66
:101580004FF6FF6C07EA0C070784828B018C4FF63D
:10159000FF7707EA04264FF60C773A404FF6FF77BD
:1015A00007EA03172F433A43B64FB8420ED0B64F5F
:1015B000B8420BD0B0F1804F08D0B44FB84205D03C
:1015C000B34FB84202D0B34FB84206D14FF6FF57DF
:1015D000394046F48077394305E04FF2FF573940F0
:1015E00044F48077394382830184F0BD028B4FF24B
:1015F000FF331A400283028B4FF6FF7303EA012385
:101600001A4302837047F0B50C46154600220021AC
:101610000026078C4FF6EF7C07EA0C070784028B45
:10162000018C4FF6FF7707EA041640F6FF473A4071
:101630004FF6FF7707EA03373A434FF6FF7707EA9B
:1016400005273A438F4FB8420ED08F4FB8420BD088
:10165000B0F1804F08D08D4FB84205D08C4FB842C2
:1016600002D08C4FB84206D14FF6DF77394046F0B2
:101670001007394305E04FF65F77394044F0100713
:10168000394302830184F0BD028B4FF6F3731A4095
:101690000283028B0A4302837047F0B50C4615465D
:1016A00000220021068C4FF6FE773E400684028B16
:1016B000018C4FF60C7632407E1C06EA03162E4350
:1016C0003243704EB0420ED06F4EB0420BD0B0F1EC
:1016D000804F08D06D4EB04205D06D4EB04202D062
:1016E0006C4EB04206D14FF6FD76314044F0010613
:1016F000314305E04FF6F576314044F001063143C1
:1017000002830184F0BD70B505460C465D488542F4
:101710000ED05D4885420BD0B5F1804F08D05B48B4
:10172000854205D05A48854202D05A48854200D1A8
:1017300000E000BF208850B92389A288618828462C
:10174000FFF7ABFFE1882846FFF79EFF25E02088E2
:1017500004280AD12389A28861882846FFF753FF0D
:10176000E1882846FFF742FF17E0208808280AD1C1
:101770002389A28861882846FFF7FBFEE188284676
:10178000FFF7EEFE09E02389A28861882846FFF76B
:10179000A6FEE1882846FFF795FE70BD2DE9F041D1
:1017A00005460C4600260127608808B9022600E09D
:1017B0000026A088012801D1022700E00127208807
:1017C000A0B92389A28861882846FFF766FFE188CF
:1017D0002846FFF759FF23893A4631462846FFF746
:1017E00012FFE1882846FFF701FF13E02389A28852
:1017F00061882846FFF707FFE1882846FFF7F6FED5
:1018000023893A4631462846FFF747FFE1882846B4
:10181000FFF73AFFBDE8F0810A884B881A438B88AE
:101820001A43CB881A430B891A434B891A438B8975
:101830001A43A0F8442070474FF6FF7181800021C1
:101840000180C18041800172704700210180418088
:101850008180C180018141818181C18170470021E6
:1018600001804180012181800021C1800181704778
:101870000021018041808180C1800181418181817D
:1018800070470000002C014000340140000400407B
:1018900000080040000C004021B1028842F0010223
:1018A000028004E002884FF6FE731A4002807047FF
:1018B00031B1B0F8442042F40042A0F8442005E0E1
:1018C000B0F84420C2F30E02A0F8442070471AB1C9
:1018D00083890B43838102E083898B438381704733
:1018E0008182704741EA0203A0F8483070471AB17C
:1018F00083890B43838102E083898B438381704713
:1019000001894FF6F8721140018170470A460021A3
:1019100001894FF68F73194011430181704730B52B
:1019200004460D4629462046FFF7F0FF208940F087
:101930000700208130BD2DE9F04104460D461646D2
:101940001F46602D06D13B46012231462046FFF757
:101950005AFE05E03B46012231462046FFF79DFE38
:1019600029462046FFF7D2FF208940F0070020815A
:10197000BDE8F08130B50C4600210189C9B24FF6AF
:10198000FF7505EA0325154325432943018130BD31
:101990002DE9F04105460E46174698460024434679
:1019A0003A4631462846FFF7E5FF2C894FF6F87096
:1019B000044044F007044FF68F70044044F0700474
:1019C0002C81BDE8F081F0B504460D4616461F4651
:1019D0003B46324629462046FFF7CCFF208940F49B
:1019E00080402081F0BD0185828270470A46002137
:1019F00001884FF68F731940114301807047F0B58D
:101A00000C4615461E460021002200230189028B48
:101A1000038C4FF6F877394021434FF6FC473A40A4
:101A200040F201173A434FF6DD773B404FF6FF7720
:101A300007EA06172F433B43018102830384F0BD6D
:101A40000A460021018B4FF68F7319401143018321
:101A500070470A460021018B48F6FF7319404FF684
:101A6000FF7303EA02231943018370470A460021EA
:101A7000818B4FF68F7319401143818370470A465B
:101A80000021818B48F6FF7319404FF6FF7303EA7C
:101A9000022319438183704721B1028842F08002FA
:101AA000028004E002884FF67F731A40028070477C
:101AB00021B1828842F00402828004E082884FF6DD
:101AC000FB731A408280704721B1828842F008027D
:101AD000828004E082884FF6F7731A408280704754
:101AE00021B1828842F00102828004E082884FF6B0
:101AF000FE731A40828070470A460021018B4FF620
:101B0000F77319401143018370470A460021018B86
:101B10004FF2FF7319404FF6FF7303EA0223194394
:101B2000018370470A460021818B4FF6F7731940F5
:101B30001143818370470A460021818B4FF2FF7366
:101B400019404FF6FF7303EA02231943818370475C
:101B50000A460021018B4FF6FB73194011430183A4
:101B600070470A460021018B4FF6FF3319404FF6AC
:101B7000FF7303EA02231943018370470A460021D9
:101B8000818B4FF6FB7319401143818370470A46DE
:101B90000021818B4FF6FF3319404FF6FF7303EAA4
:101BA00002231943818370470A460021018B4FF6B7
:101BB0007F7319401143018370470A460021018B4E
:101BC000C1F30E014FF6FF7303EA022319430183A9
:101BD00070470A460021818B4FF67F7319401143ED
:101BE000818370470A460021818BC1F30E014FF6B5
:101BF000FF7303EA02231943818370470A460021D9
:101C0000018C4FF6FD7319401143018470470A4659
:101C10000021018C4FF6F77319401143018470477E
:101C20000A460021018C4FF6DF7319404FF6FF730F
:101C300003EA02131943018470470A460021018C0C
:101C40004FF67F7319404FF6FF7303EA02131943EF
:101C5000018470470A460021018C4FF6FF5319405A
:101C60004FF6FF7303EA02231943018470470A46C3
:101C70000021018C4FF2FF7319404FF6FF7303EA06
:101C800002231943018470470A460021018C4DF656
:101C9000FF7319404FF6FF7303EA023319430184BF
:101CA000704730B5002301248C40A3B2048C9C43C0
:101CB0000484048C02FA01F5ADB22C43048430BDD7
:101CC00030B5002304248C40A3B2048C9C430484CC
:101CD000048C02FA01F5ADB22C43048430BD70B51A
:101CE0000346002000241846183001258D40ACB270
:101CF0001D8CA5431D8409B1082909D100EB6100A1
:101D0000056825F0700505600568154305600EE05F
:101D10000D1FC5F34E052844056825F4E045056010
:101D200005684FF6FF7606EA02263543056070BD6A
:101D300021B1028842F00202028004E002884FF6DC
:101D4000FD731A400280704721B1028842F00402FC
:101D5000028004E002884FF6FB731A40028070474D
:101D600021B1828842F08002828004E082884FF6AE
:101D70007F731A408280704702884FF6F7731A40CB
:101D8000028002880A430280704782884FF68F7370
:101D90001A40828082880A438280704702894FF607
:101DA000F8731A40028102890A430281704702894E
:101DB0004FF67F731A40028102890A4302817047FD
:101DC000818470478185704781867047018770479D
:101DD00081877047A0F84010704702884FF6FF4394
:101DE0001A40028002880A43028070470146888EAA
:101DF00070470146088F70470146888F704701463B
:101E0000B1F8400070470146888C70470146088D44
:101E1000704702460020138A0B400BB1012000E0FE
:101E200000207047CA430282704730B50246002046
:101E300000230024158A05EA0103958905EA0104B7
:101E400013B10CB1012000E0002030BDCA43028272
:101E50007047000010B50446FB48844209D10121B7
:101E60008803FFF79FF800214FF48040FFF79AF8AE
:101E700032E0F648844209D101214804FFF79FF877
:101E800000214FF40030FFF79AF825E0F048844233
:101E900009D101218804FFF792F800214FF4802036
:101EA000FFF78DF818E0EB48844209D10121C804FE
:101EB000FFF785F800214FF40020FFF780F80BE0D2
:101EC000E548844208D101210805FFF778F8002190
:101ED0004FF48010FFF773F810BD2DE9F04786B07E
:101EE00005460E460024A24600BFA1460027B08941
:101EF00000B100BF2F462C8A4CF6FF700440F088DA
:101F000004432C82AC894EF6F3100440B08831892A
:101F10000843718908430443AC81AC8A4FF6FF4003
:101F20000440B0890443AC8201A8FEF7B4FFC64860
:101F3000874202D1DDF810A001E0DDF80CA0A889ED
:101F400000F4004040B10AEBCA0000EB0A1031680F
:101F50004900B0FBF1F807E00AEBCA0000EB0A10F9
:101F600031688900B0FBF1F86420B8FBF0F004019F
:101F70002009642101FB1089A88900F4004040B1C8
:101F8000322000EBC900B0FBF1F000F00700044381
:101F900008E0322000EB09106421B0FBF1F000F002
:101FA0000F0004432C8106B0BDE8F0874FF41651B2
:101FB000016000218180C18001810C2141810021CB
:101FC0008181704710B502460020108A4FF2FF034E
:101FD00018400B884C8823438C882343CC882343A8
:101FE0001843108210BD0021018041808180C18092
:101FF000704721B1828942F40052828104E08289D3
:102000004DF6FF731A4082817047F0B503460024F5
:1020100000260025002040F66A17B94200D100BF13
:102020001846C1F3421401F01F06012707FA06F50E
:10203000012C01D10C3004E0022C01D1103000E061
:1020400014301AB107682F43076002E00768AF43F6
:102050000760F0BD1AB1838A0B43838202E0838A52
:102060008B4383827047028A4FF6F0731A400282D4
:10207000028A0A430282704782894FF2FF731A4034
:10208000828182890A438281704721B1828942F02C
:102090000202828104E082894FF6FD731A40828138
:1020A0007047028A4FF6DF731A400282028A0A439F
:1020B0000282704721B1028A42F48042028204E027
:1020C000028A4BF6FF731A4002827047C1F308027E
:1020D0008280704701468888C0F308007047818974
:1020E00041F0010181817047028BD2B20283028BE1
:1020F00042EA012202837047028B02F47F4202838C
:10210000028B0A430283704721B1828A42F0200287
:10211000828204E0828A4FF6DF731A40828270471F
:1021200021B1828A42F01002828204E0828A4FF654
:10213000EF731A408282704721B1828A42F008020E
:10214000828204E0828A4FF6F7731A4082827047D7
:1021500021B1828942F40042828103E08289C2F384
:102160000E028281704721B1828A42F4006282822B
:1021700004E0828A4FF2FF731A4082827047828A9B
:102180004FF6FB731A408282828A0A43828270472A
:1021900021B1828A42F00202828204E0828A4FF6F2
:1021A000FD731A408282704702460020B1F5007F1D
:1021B00000D100BF13880B400BB1012000E00020CC
:1021C000704701F40072B2F5007F00D100BFCA432E
:1021D0000280704770B502460024002300250020CD
:1021E00040F66A16B14200D100BFC1F3421501F0BA
:1021F0001F03012606FA03F3012D02D1968933400D
:1022000006E0022D02D1168A334001E0968A33405F
:102210000C12012606FA04F41688344013B10CB1EE
:10222000012000E0002070BD10B50022002340F620
:102230006A14A14200D100BF0A1201249440A3B243
:10224000DC43048010BD0000003801400044004021
:1022500000480040004C00400050004010B56FF0B6
:102260000400FEF75AF92E4800682E49B0FBF1F041
:102270002D4908700846007800EB4001C1EBC01002
:102280004FF6FF7101EAC0002849088010BD0146E1
:10229000254A12784A434FF0E0235A6100229A619E
:1022A0001A46126942F001021A6100BF4FF0E022A3
:1022B000106900F001021AB100F48032002AF5D052
:1022C0004FF0E022126922F001024FF0E0231A6180
:1022D00000229A6170470146144A12884A434FF01F
:1022E000E0235A6100229A611A46126942F0010203
:1022F0001A6100BF4FF0E022106900F001021AB12C
:1023000000F48032002AF5D04FF0E022126922F06A
:1023100001024FF0E0231A6100229A617047000029
:102320000000002000127A00280000202A0000206F
:1023300000BF704700BF4A4A128802F04002002ADC
:10234000F9D0C2B2464B1B1D1A80704710B586B03B
:102350000446012144F20400FEF70AFE4FF4007027
:10236000ADF8140003208DF8160018208DF8170022
:1023700005A93C48FEF740FB4FF48060ADF814001F
:1023800004208DF8170005A93648FEF735FB2520F7
:102390008DF8000003208DF801008DF80200012067
:1023A0008DF803006846FEF76EF801940020ADF842
:1023B0000800ADF80A00ADF80C00ADF810000C20D4
:1023C000ADF80E0001A92648FFF787FD012240F273
:1023D00025512348FFF719FE01212148FFF709FE87
:1023E00006B010BD10B540F225511D48FFF7F2FEB2
:1023F00010B31B48FFF76EFEC4B21B48008800F400
:102400000040C8B91848008800F4804060B10A2C28
:1024100003D000201449088020E01348008840F4CD
:1024200000401149088019E00D2C06D10E480088A3
:1024300040F480400C49088010E00B480088C0F34D
:102440000D000A490C5408480088401C06490880C1
:1024500008460088C72801DD0020088010BD000064
:102460000038014000080140300000205C000020DE
:1024700000B585B001210220FEF76DFD0121042089
:10248000FEF776FD01214807FEF77FFD01211020B0
:10249000FEF77BFD04200090002001900390694628
:1024A000FEF765F801210020FEF78FF81020ADF847
:1024B000100000208DF8130001208DF8120004A9EF
:1024C0007B48FEF799FA05B000BD30B58BB00446E5
:1024D0000D46002211467748FFF785FAA1B27548EC
:1024E000FFF770FC20217348FFF74FFC7248FEF79E
:1024F000F9F87248009072480190102002900395FC
:1025000000200490802005904000069080000790F5
:1025100020200890002009900A9069466648FEF73E
:1025200083F901216448FEF7AAF90BB030BD2DE90B
:10253000F04F8BB081460D4616469A4600215D4805
:10254000FFF7AAF900210846FEF72EF8B9F1050FAA
:1025500073D2DFE809F0031E695683005948B0FBC7
:10256000F5F764213846FFF7B0FF002404E0544833
:1025700020F81460601CC4B25445F8DB544605E0F2
:1025800000204F4921F81400601CC4B2642CF7DB12
:1025900081E04C48B0FBF5F764213846FFF795FF22
:1025A00000242BE0204600F030FA4749009000F06C
:1025B000A3F88346454900F0D1F8019000F050FAA5
:1025C000CDE9020100F036FF07468846304600F0AC
:1025D00021FA3A464346CDE9040100F0A4F900226D
:1025E0003B4BCDE9060100F0F7F8CDE9080100F01A
:1025F0001EFA334921F81400601CC4B2642CD1DBEC
:1026000049E03048B0FBF5F764213846FFF75DFF3D
:10261000002406E004FB06F0294921F81400601CA0
:10262000C4B2642CF6DB36E02648B0FBF5F7642133
:102630003846FFF74AFF00240DE02BE0C4F13200DA
:10264000002801DB014600E0414271431C4A22F8A8
:102650001410601CC4B2642CF0DB1CE01948B0FB01
:10266000F5F764213846FFF730FF00240FE000F053
:1026700031F890FBF6F106FB1107002F01DB38461D
:1026800000E078420E4921F81400601CC4B2642CAA
:10269000EDDB00E000BF00BF01210020FDF784FF5B
:1026A00001210448FFF7F8F80BB0BDE8F08F0000F7
:1026B000000801400010004030040240087400404F
:1026C0002401002080FC0A0043821B440000C84211
:1026D00000FC9F400649074A0868504343F239020C
:1026E00010440860400870470149086070470000C6
:1026F000540000206D4EC64180EA010210B502F080
:102700000043400022D04A001FD0010E01EB1261AD
:10271000C0F35600C2F3560240F4000042F4000237
:10272000A0FB022000047F39140400D0401C50EAB2
:10273000124001D44000491EC2B20C0604EBD01076
:10274000401C4008802A02D003E0002010BD20F089
:102750000100002900DA0020184310BD30B480EADF
:10276000010202F0004530F0004221F0004013D099
:1027700090B1C30DD40DC2F31601C0F31600E41AD4
:1027800041F4000140F400027D34914201D3641C05
:1027900000E04900002C02DA30BC002070474FF402
:1027A00000000023914201D3891A034340084FEAF5
:1027B0004101F7D151B1914202D14FF0004105E002
:1027C00002D24FF0010101E06FF0010103EBC450B0
:1027D000284430BC00F088B92DE9FE4F804681EADC
:1027E0000300C00F0C46009021F0004123F000458B
:1027F000B8EB0200A94105D24046214690461C464E
:102800000B46024623F00040104347D0270DC7F384
:102810000A00C3F30A510290401A019040286BDA73
:10282000C3F3130040F4801B0098924620B10023AC
:10283000D2EB030A63EB0B0B01985946C0F140023F
:10284000504600F020F906460D4650465946019A7A
:1028500000F038F910EB08006141002487EA1152BA
:1028600084EAE7731A4340D0009A62B3019A012ABE
:102870004FEA075215DC001B61EB02014FF00042EA
:1028800002EA0752CDE90042001C41F580113246B0
:102890002B4600F06FF903B0BDE8F08F40462146AB
:1028A000F9E7001B61EB0201001C41F580130018E1
:1028B0005B412018A2F5001747EB030140EAD570F1
:1028C000B6196D4111E06D084FEA360645EAC0754C
:1028D0004FEA0752001B61EB0201001C41F5801119
:1028E00049084FEA30000019514132462B4603B0E7
:1028F000BDE8F04F00F02FB90098012240000023FE
:10290000D0EB020263EBE073009821464FEAE074DB
:10291000B8EB000061EB0401E9E783F000435BE7FB
:1029200081F0004158E72DE9FE4F81EA030404F0ED
:10293000004421F0004100944FF0000B23F00043CD
:1029400050EA01045ED052EA03045BD0C3F30A5498
:10295000C1F30A552C44A4F2F3340194A0FB0254B1
:10296000C1F3130141F48011C3F3130343F4801343
:1029700001FB024400FB034E840A970A44EA815497
:1029800047EA8357A4FB076802958D0A05FB078574
:102990004FEA932C04FB0C542705029D4FEA06587E
:1029A00047EA1637B5EB08056EEB070C870E920E5B
:1029B00047EA811742EA8312A7FB0201B6EB0B013B
:1029C00064EB00042B0D43EA0C335E1844EB1C50FF
:1029D000DA465146E7FB0201C5F313044FEA0B3315
:1029E00043EA14534FEA0432019C43EA0603A4F17C
:1029F0000C040294009CCDE900B400F0BBF803B0D5
:102A0000BDE8F08F00200146F9E796230022114629
:102A100000F073B80EB540F2334102910021CDE9C8
:102A200000110A460B4600F0A5F803B000BDC1F343
:102A30000A5210B5C1F3130140F2FF3341F4801183
:102A40009A4201DA002010BD40F233439A42A2F2CA
:102A5000334203DC524200F025F810BD904010BD17
:102A600000F0004230F000400AD0C10D01F5607165
:102A7000C0F3160042EA0151C208400711437047F3
:102A8000002001467047202A04DB203A00FA02F1B8
:102A9000002070479140C2F1200320FA03F319434C
:102AA00090407047202A04DB203A21FA02F00021EE
:102AB000704721FA02F3D040C2F12002914008434E
:102AC00019467047202A06DBCB17203A41FA02F05C
:102AD00043EAE07306E041FA02F3D040C2F120027B
:102AE00091400843194670470029A8BF7047401C11
:102AF000490008BF20F00100704710B4B0FA80FC14
:102B000000FA0CF050EA010404BF10BC704749B150
:102B1000CCF1200421FA04F411FA0CF118BF0121C0
:102B200021430843A3EB0C01CB1D4FEA00614FEAA0
:102B3000102042BF002010BC704700EBC35010446F
:102B40000029A4BF10BC7047401C490008BF20F0FA
:102B5000010010BC704710B5141E73F1000408DAB0
:102B6000401C41F1000192185B411A4301D120F051
:102B7000010010BD2DE9F04D92469B4611B1B1FA0E
:102B800081F202E0B0FA80F220329046FFF77BFF3C
:102B900004460F4640EA0A0041EA0B0153465A46F2
:102BA000084313D0114653EA010019D0C8F140027E
:102BB0005046FFF777FF05460E46504659464246B7
:102BC000FFF761FF084305D0012004E020463946A5
:102BD000BDE8F08D0020054346EAE0762C433743FC
:102BE0000A986305E40AA0EB08000022FD0A44EA03
:102BF00047540A3002D500200146E9E701051019C3
:102C00006941DDE9084500196941BDE8F04DA2E7D9
:102C1000064C074D06E0E06840F0010394E8070029
:102C200098471034AC42F6D3FDF786FAF835000821
:102C3000183600082DE9F04D81EA030404F0004B3A
:102C400021F0004514464FF0000A23F0004150EAFD
:102C5000050220D054EA01021DD0C5F30A570246EE
:102C6000C5F31303C1F31300C1F30A5640F48015F2
:102C700043F48013A7EB0608101BD64608F2FD3874
:102C800073EB050002D308F1010801E092185B41E3
:102C9000B8F1000F03DA00200146BDE8F08D0020F6
:102CA0004FF48011064684460EE0171B73EB0507B0
:102CB00005D3121B63EB050306434CEA010C4908DC
:102CC0004FEA300092185B4150EA0107EDD152EA19
:102CD000030012D082EA040083EA0501084305D00C
:102CE000101BAB4106D20122002306E000224FF068
:102CF000004302E06FF0010253101AEB06004CEBA8
:102D0000085110EB0A0041EB0B01BDE8F04DFFF755
:102D100022BF70B521F0004303430CD0C1F30A5524
:102D20000024D5EB040564EB0403D617AD1AB341B8
:102D300002DB0020014670BD201841EB025170BD3E
:102D40000EB5C10F80EAE0700844CA07002140F2C6
:102D500033438DE80E000A460B46FFF70BFF03B026
:102D600000BD70B5C1F30A5201F000450024C1F363
:102D7000130140F2FF3341F480119A4201DA00203E
:102D800070BD40F233439A42A2F2334203DC524216
:102D9000FFF788FE00E090402C43F1D0404270BD28
:102DA000490050EAC12018BF04204A0D18BF40F066
:102DB000010040F2FF72B2EB515F08BF40F0020029
:102DC000012808BF052070472DE9F74F144694B03D
:102DD0000021C4E902111599079121F00045C94964
:102DE0008D4206DC1599C4E9000117B00020BDE84A
:102DF000F08FC549DFF814A3A9423CDD0799C44E02
:102E00000029C44FC44A1599534619DDFFF785FDC3
:102E1000554506D0C14AC24BFFF77FFDC4E900010A
:102E20000AE04FF0D352BE4BFFF777FD32463B46E8
:102E3000FFF773FDC4E9000117B00120BDE8F08F72
:102E4000FFF7CAFC554506D0B44AB54BFFF7C4FCA2
:102E5000C4E900010AE04FF0D352B14BFFF7BCFCCC
:102E600032463B46FFF7B8FCC4E9000117B04FF00B
:102E7000FF30BDE8F08FAB49A942159978DB21F00E
:102E8000004183468846A84AA84BFFF74CFD002224
:102E9000A74BFFF7A1FCFFF764FF0990FFF750FF76
:102EA00006460F469C4A5346FFF73DFD43465A46A9
:102EB000FFF736FD80468A46984A994B3046394698
:102EC000FFF731FD2A0D01250B9242465346FFF7CD
:102ED00027FD032DC4E9000139D00B98C1F30A5135
:102EE000401A05EB45111139814230DA9148C34649
:102EF000784400EB0510CDF80CA00C90D0E900232D
:102F000030463946FFF70FFD02460B460491069006
:102F100058460399FFF701FD80468A4602460B4654
:102F200058460399FFF7F9FC049B069AFFF7F5FC56
:102F300083460C9803913946D0E902233046FFF7C7
:102F4000F2FC5A46039BFFF7E8FC6D1CBDE70798AF
:102F50000028A2BF099817B0BDE8F08F616881F022
:102F600000416160099817B04042BDE8F08FFFE76B
:102F700084461598C1F31301C0F30A50A0F2F5304E
:102F80004FEA601800F01F06C6F1200013900020E1
:102F90000690079041F4801E05206D4676B1664A82
:102FA00008EB00017A4452F8213002EB8101B34072
:102FB0004A68139922FA01F1194305E05F4908EBC9
:102FC0000002794451F82210A1FB0E27A1FB0C133B
:102FD0001A449A4234BF0123002303EB070A05EB8E
:102FE0008003D3E901B70F448F4234BF0121002190
:102FF00093448B4411B1934502D903E0934501D228
:10300000012100E00021C3E901B7514445F8201037
:10301000011EA0F10100C1DC0298059F00F10050E3
:10302000800F12900298DDE903568000FFF788FEBA
:10303000834628460D91FFF7EDFC6FF01D02FFF768
:1030400068FECDE90E013046FFF7E4FC6FF03D026B
:10305000FFF75FFE80468A463846FFF7DBFC6FF0DD
:103060005D02FFF756FE0746424653461191FFF7B1
:10307000B3FBDDE90E23FFF7AFFB5A460D9BFFF7CD
:10308000ABFB00250E465A4628460D9BFFF745FC34
:10309000DDE90E23FFF741FC42465346FFF73DFCB6
:1030A0003A46119BFFF73CFCDFF898A0244A5346B0
:1030B000FFF739FC07468846234A244B3146284609
:1030C000FFF731FC3A464346FFF786FB0746884642
:1030D0004FF0A842534631462846FFF724FC3A46B3
:1030E0004346FFF779FB159A12F0004F04D0129A6D
:1030F00081F0004152421292C4E90001129817B0C7
:10310000BDE8F08FFB21E93F7CD90240FB21F93F6C
:103110007370032E8A19A33B000040543163621A76
:1031200061B4D03DFB21394183C8C96D305FE43FB4
:103130000000E03F1406000090050000720500004A
:10314000182D4454FB21F93D3326A611460B113CA2
:103150002DE9FF4D21F0004807460C46B8F1795F94
:1031600008DAFFF7FEFD002801BF0020324904B055
:10317000BDE8F08D3A46234610461946FFF7D3FBCB
:10318000054602462D480E460B460621784400F0BF
:103190005DF82A463346FFF7C6FBDDE90223824687
:1031A0008B4638462146FFF7BEFB04460F46524683
:1031B0005B4628463146FFF7B6FB22463B46FFF703
:1031C000ACFB07468A464FF0FF3228463146FFF7F0
:1031D000A0FD1B4A90450ADA3A465346FFF79DFB8D
:1031E00004B00022BDE8F04D134BFFF799BB154A20
:1031F0004245A8BFA8F500154FF00004B8BF124D16
:1032000022462B46FFF789FB0646884622462B4678
:1032100000200949FFF781FB04460D463A46534614
:1032200030464146FFF779FB04B022462B46BDE805
:10323000F04DFFF775BB00000000F03F48030000B1
:103240003333D33F0000E93F0000D23F2DE9F04186
:103250004F1E00EBC7010446D1E9000115461E468A
:1032600037F006020DD02A463346FFF75CFB7F1E7F
:1032700004EBC703D3E90023FFF7AEFA37F00602E9
:10328000F1D1022F25D0042F13D0062F18BFBDE88F
:10329000F0812A463346FFF746FBD4E90A23FFF7BD
:1032A0009BFA2A463346FFF73EFBD4E90823FFF793
:1032B00093FA2A463346FFF736FBD4E90623FFF795
:1032C0008BFA2A463346FFF72EFBD4E90423FFF797
:1032D00083FA2A463346FFF726FBD4E90223FFF799
:1032E0007BFA2A463346FFF71EFBD4E90023BDE8EC
:1032F000F041FFF771BA00002DE9FF4D054621F0BE
:10330000004084B00C46B0F1795F0BDA2846FFF735
:1033100047FD042808BF00F06FF8284608B0214692
:10332000BDE8F08D2A460B461046FFF7FCFA06462C
:103330000F462A462346FFF7F6FA804626488A4675
:1033400032463B4605217844FFF780FF83461098BC
:10335000029160B3214A224B40465146FFF7E3FAFF
:10336000CDE900015A4640465146029BFFF7DBFA81
:1033700082468846DDE906014FF0FF32FFF7C9FCBF
:1033800052464346FFF7C9FA32463B46FFF7CBFAAF
:10339000DDE90623FFF7C1FADDE90023FFF7BDFAF7
:1033A00008B02A462346BDE8F04DFFF7B9BA0B46F0
:1033B0005A4630463946FFF7B6FA084A084BFFF737
:1033C0000BFA42465346FFF7AEFA08B02A462346A8
:1033D000BDE8F04DFFF700BA86020000495555558B
:1033E0005555C5BF0122FFF794BC00221346104675
:1033F0001146FFF71FBC0000024A00201107FFF72B
:1034000088BC000001FDFFFF02E008C8121F08C1D0
:10341000002AFAD170477047002001E001C1121F55
:10342000002AFBD170470000014908607047000086
:103430005800002000B5254B21F0004287B09A4289
:1034400003DC0022134600922BE0214B9A4208D164
:1034500040B94FF00100FFF7E7FFFFF7C6FF07B0E5
:1034600000BD03DBFFF7BEFF07B000BD02AAFFF7F8
:10347000ABFC10F003014FF001000DD0012914D076
:1034800002291AD00DF1080C9CE80F00FFF760FE2E
:1034900007B081F0004100BD0DF1080C00909CE8E0
:1034A0000F00FFF729FF07B000BD0DF1080C9CE8E5
:1034B0000F00FFF74DFE07B000BD0DF1080C0090A6
:1034C0009CE80F00FFF718FFE2E70000FB21E93F4F
:1034D0000000F07F000000004C5555555555A53FA4
:1034E0007751C1166CC156BF9015CB19A001FA3E99
:1034F000AD529C804F7E92BEC4B1B4BD9EEE213EC3
:10350000D43888BEE9FAA8BD00004054FB21F93F39
:103510003163621A61B4D03D0000601A61B4D03DDD
:103520007370032E8A19A33B0000002E8A19A33B57
:10353000C14920259A837B3900000000000000006B
:103540006E83F9A22915444ED15727FCC0DD34F50E
:10355000999562DB4190433CAB6351FE61C5BBDE94
:103560003A6E24B7E0D24D42EA2E49061C92D109A8
:103570001CEB1DFE3EA729B1F53582E88444BB2E25
:1035800026709CE9417E5FB439D69139F439538372
:103590008B5F849C3B28F9BDFF97F81F0F9805DED1
:1035A0008B112FEF1F6D0A5ACF7E366DB709CB27CF
:1035B000663F464F2DEA5F9EC7BA27757BF1E5EB64
:1035C000F739073DEA92528AB15FFB6B085D8D1FA8
:1035D000A6F810111111813FD561C119A0012ABFB0
:1035E0007DFEB157E31DC73EEB9C2B8AE6E55ABE34
:1035F0007CD5CF5A3AD9E53D1836000800000020A6
:103600005C00000008340008743600085C000020EC
:10361000940500001834000800A24A0400000000CD
:103620000000000001020304060708090000000072
:103630000102030401020304060708090204060844
:10364000000000000000000000000000000000007A
:10365000000000000000000000000000000000006A
:10366000000000000000000000000000000000005A
:043670000000000056
:0400000508000131BD
:00000001FF
